{
    "contractName": "counter",
    "abi": [
        {
            "inputs": [],
            "stateMutability": "nonpayable",
            "type": "constructor"
        },
        {
            "anonymous": false,
            "inputs": [
                {
                    "indexed": false,
                    "internalType": "int256",
                    "name": "value",
                    "type": "int256"
                }
            ],
            "name": "Decremented",
            "type": "event"
        },
        {
            "anonymous": false,
            "inputs": [
                {
                    "indexed": false,
                    "internalType": "int256",
                    "name": "value",
                    "type": "int256"
                }
            ],
            "name": "Incremented",
            "type": "event"
        },
        {
            "inputs": [],
            "name": "decrement",
            "outputs": [],
            "stateMutability": "nonpayable",
            "type": "function"
        },
        {
            "inputs": [],
            "name": "getValue",
            "outputs": [
                {
                    "internalType": "int256",
                    "name": "",
                    "type": "int256"
                }
            ],
            "stateMutability": "view",
            "type": "function"
        },
        {
            "inputs": [],
            "name": "increment",
            "outputs": [],
            "stateMutability": "nonpayable",
            "type": "function"
        }
    ],
    "bytecode": "608060405234801561001057600080fd5b50600160005561018d806100256000396000f3fe608060405234801561001057600080fd5b50600436106100415760003560e01c806320965255146100465780632baeceb71461005b578063d09de08a14610065575b600080fd5b60005460405190815260200160405180910390f35b61006361006d565b005b6100636100be565b60008054908061007c8361011b565b91905055507f22ccb5ba3d32a9221c3efe39ffab06d1ddc4bd6684975ea75fa60f95ccff53de6000546040516100b491815260200190565b60405180910390a1565b6000805490806100cd83610138565b91905055507fda0bc8b9b52da793a50e130494716550dab510a10a485be3f1b23d4da60ff4be6000546040516100b491815260200190565b634e487b7160e01b600052601160045260246000fd5b6000600160ff1b820161013057610130610105565b506000190190565b60006001600160ff1b01820161015057610150610105565b506001019056fea2646970667358221220742086f482cfcee266bdd877b7a4af387a1ed1ca424a65ea5feb8dc37ef7c47e64736f6c63430008130033",
    "sourcePath": "e:/Solidity/counter.sol",
    "compiler": {
        "name": "solc",
        "version": "0.8.19+commit.7dd6d404"
    },
    "functionHashes": {
        "decrement()": "2baeceb7",
        "getValue()": "20965255",
        "increment()": "d09de08a"
    },
    "gasEstimates": {
        "creation": {
            "codeDepositCost": "79400",
            "executionCost": "22235",
            "totalCost": "101635"
        },
        "external": {
            "decrement()": "27611",
            "getValue()": "2246",
            "increment()": "27636"
        }
    }
}